{
  "contractName": "Emission",
  "abi": [
    {
      "anonymous": false,
      "inputs": [
        {
          "indexed": false,
          "internalType": "string",
          "name": "wallet_id",
          "type": "string"
        },
        {
          "indexed": false,
          "internalType": "string",
          "name": "carbon",
          "type": "string"
        }
      ],
      "name": "EmissionData",
      "type": "event"
    },
    {
      "inputs": [],
      "name": "dataCount",
      "outputs": [
        {
          "internalType": "uint256",
          "name": "",
          "type": "uint256"
        }
      ],
      "stateMutability": "view",
      "type": "function",
      "constant": true
    },
    {
      "inputs": [
        {
          "internalType": "uint256",
          "name": "",
          "type": "uint256"
        }
      ],
      "name": "emmis",
      "outputs": [
        {
          "internalType": "string",
          "name": "wallet_id",
          "type": "string"
        },
        {
          "internalType": "string",
          "name": "carbon",
          "type": "string"
        }
      ],
      "stateMutability": "view",
      "type": "function",
      "constant": true
    },
    {
      "inputs": [
        {
          "internalType": "string",
          "name": "_walletID",
          "type": "string"
        },
        {
          "internalType": "string",
          "name": "_carbon",
          "type": "string"
        }
      ],
      "name": "createEmissionData",
      "outputs": [],
      "stateMutability": "nonpayable",
      "type": "function"
    }
  ],
  "bytecode": "0x60806040526000805534801561001457600080fd5b50610937806100246000396000f3fe608060405234801561001057600080fd5b50600436106100415760003560e01c80630c345808146100465780635da40c4714610077578063baa6ebfe14610095575b600080fd5b610060600480360381019061005b91906102e1565b6100b1565b60405161006e92919061039e565b60405180910390f35b61007f6101e5565b60405161008c91906103e4565b60405180910390f35b6100af60048036038101906100aa9190610534565b6101eb565b005b60016020528060005260406000206000915090508060000180546100d4906105db565b80601f0160208091040260200160405190810160405280929190818152602001828054610100906105db565b801561014d5780601f106101225761010080835404028352916020019161014d565b820191906000526020600020905b81548152906001019060200180831161013057829003601f168201915b505050505090806001018054610162906105db565b80601f016020809104026020016040519081016040528092919081815260200182805461018e906105db565b80156101db5780601f106101b0576101008083540402835291602001916101db565b820191906000526020600020905b8154815290600101906020018083116101be57829003601f168201915b5050505050905082565b60005481565b6000808154809291906101fd9061063b565b919050555060405180604001604052808381526020018281525060016000805481526020019081526020016000206000820151816000019081610240919061082f565b506020820151816001019081610256919061082f565b509050507fa10a0d9e652a7cbc5d4d753d130932300ce98345abce0807d5289593229cc0f3828260405161028b92919061039e565b60405180910390a15050565b6000604051905090565b600080fd5b600080fd5b6000819050919050565b6102be816102ab565b81146102c957600080fd5b50565b6000813590506102db816102b5565b92915050565b6000602082840312156102f7576102f66102a1565b5b6000610305848285016102cc565b91505092915050565b600081519050919050565b600082825260208201905092915050565b60005b8381101561034857808201518184015260208101905061032d565b60008484015250505050565b6000601f19601f8301169050919050565b60006103708261030e565b61037a8185610319565b935061038a81856020860161032a565b61039381610354565b840191505092915050565b600060408201905081810360008301526103b88185610365565b905081810360208301526103cc8184610365565b90509392505050565b6103de816102ab565b82525050565b60006020820190506103f960008301846103d5565b92915050565b600080fd5b600080fd5b7f4e487b7100000000000000000000000000000000000000000000000000000000600052604160045260246000fd5b61044182610354565b810181811067ffffffffffffffff821117156104605761045f610409565b5b80604052505050565b6000610473610297565b905061047f8282610438565b919050565b600067ffffffffffffffff82111561049f5761049e610409565b5b6104a882610354565b9050602081019050919050565b82818337600083830152505050565b60006104d76104d284610484565b610469565b9050828152602081018484840111156104f3576104f2610404565b5b6104fe8482856104b5565b509392505050565b600082601f83011261051b5761051a6103ff565b5b813561052b8482602086016104c4565b91505092915050565b6000806040838503121561054b5761054a6102a1565b5b600083013567ffffffffffffffff811115610569576105686102a6565b5b61057585828601610506565b925050602083013567ffffffffffffffff811115610596576105956102a6565b5b6105a285828601610506565b9150509250929050565b7f4e487b7100000000000000000000000000000000000000000000000000000000600052602260045260246000fd5b600060028204905060018216806105f357607f821691505b602082108103610606576106056105ac565b5b50919050565b7f4e487b7100000000000000000000000000000000000000000000000000000000600052601160045260246000fd5b6000610646826102ab565b91507fffffffffffffffffffffffffffffffffffffffffffffffffffffffffffffffff82036106785761067761060c565b5b600182019050919050565b60008190508160005260206000209050919050565b60006020601f8301049050919050565b600082821b905092915050565b6000600883026106e57fffffffffffffffffffffffffffffffffffffffffffffffffffffffffffffffff826106a8565b6106ef86836106a8565b95508019841693508086168417925050509392505050565b6000819050919050565b600061072c610727610722846102ab565b610707565b6102ab565b9050919050565b6000819050919050565b61074683610711565b61075a61075282610733565b8484546106b5565b825550505050565b600090565b61076f610762565b61077a81848461073d565b505050565b5b8181101561079e57610793600082610767565b600181019050610780565b5050565b601f8211156107e3576107b481610683565b6107bd84610698565b810160208510156107cc578190505b6107e06107d885610698565b83018261077f565b50505b505050565b600082821c905092915050565b6000610806600019846008026107e8565b1980831691505092915050565b600061081f83836107f5565b9150826002028217905092915050565b6108388261030e565b67ffffffffffffffff81111561085157610850610409565b5b61085b82546105db565b6108668282856107a2565b600060209050601f8311600181146108995760008415610887578287015190505b6108918582610813565b8655506108f9565b601f1984166108a786610683565b60005b828110156108cf578489015182556001820191506020850194506020810190506108aa565b868310156108ec57848901516108e8601f8916826107f5565b8355505b6001600288020188555050505b50505050505056fea2646970667358221220e1a6844245a66ccc393f1164576530abfec5f28871608d8ad72b1fb92d46b19a64736f6c63430008120033",
  "immutableReferences": {},
  "source": "// SPDX-License-Identifier: MIT\r\npragma solidity >=0.4.22 <0.9.0;\r\n\r\ncontract Emission {\r\n    uint256 public dataCount = 0;\r\n    struct Data {\r\n        string wallet_id;\r\n        string carbon;\r\n    }\r\n\r\n    event EmissionData(string wallet_id, string carbon);\r\n\r\n    mapping(uint256 => Data) public emmis;\r\n\r\n    function createEmissionData(string memory _walletID, string memory _carbon) public {\r\n        dataCount++;\r\n        emmis[dataCount] = Data(_walletID, _carbon);\r\n        emit EmissionData(_walletID, _carbon);\r\n    }\r\n\r\n}\r\n",
  "sourcePath": "G:\\Github-Repo\\Binary-Beast\\Green-Chain\\contracts\\Emission.sol",
  "compiler": {
    "name": "solc",
    "version": "0.8.18+commit.87f61d96.Emscripten.clang"
  },
  "schemaVersion": "3.4.12",
  "updatedAt": "2023-02-18T20:49:34.973Z",
  "networkType": "ethereum",
  "devdoc": {
    "kind": "dev",
    "methods": {},
    "version": 1
  },
  "userdoc": {
    "kind": "user",
    "methods": {},
    "version": 1
  }
}