{
  "contractName": "Emission",
  "abi": [
    {
      "anonymous": false,
      "inputs": [
        {
          "indexed": false,
          "internalType": "string",
          "name": "wallet_id",
          "type": "string"
        },
        {
          "indexed": false,
          "internalType": "string",
          "name": "carbon",
          "type": "string"
        },
        {
          "indexed": false,
          "internalType": "string",
          "name": "date",
          "type": "string"
        }
      ],
      "name": "EmissionData",
      "type": "event"
    },
    {
      "inputs": [],
      "name": "dataCount",
      "outputs": [
        {
          "internalType": "uint256",
          "name": "",
          "type": "uint256"
        }
      ],
      "stateMutability": "view",
      "type": "function",
      "constant": true
    },
    {
      "inputs": [
        {
          "internalType": "uint256",
          "name": "",
          "type": "uint256"
        }
      ],
      "name": "emmis",
      "outputs": [
        {
          "internalType": "string",
          "name": "wallet_id",
          "type": "string"
        },
        {
          "internalType": "string",
          "name": "carbon",
          "type": "string"
        },
        {
          "internalType": "string",
          "name": "date",
          "type": "string"
        }
      ],
      "stateMutability": "view",
      "type": "function",
      "constant": true
    },
    {
      "inputs": [
        {
          "internalType": "string",
          "name": "_walletID",
          "type": "string"
        },
        {
          "internalType": "string",
          "name": "_carbon",
          "type": "string"
        },
        {
          "internalType": "string",
          "name": "_date",
          "type": "string"
        }
      ],
      "name": "createEmissionData",
      "outputs": [],
      "stateMutability": "nonpayable",
      "type": "function"
    }
  ],
  "bytecode": "0x60806040526000805534801561001457600080fd5b50610a29806100246000396000f3fe608060405234801561001057600080fd5b50600436106100415760003560e01c80630c345808146100465780633ecfe48a146100785780635da40c4714610094575b600080fd5b610060600480360381019061005b919061038f565b6100b2565b60405161006f9392919061044c565b60405180910390f35b610092600480360381019061008d91906105cd565b610274565b005b61009c61033f565b6040516100a99190610683565b60405180910390f35b60016020528060005260406000206000915090508060000180546100d5906106cd565b80601f0160208091040260200160405190810160405280929190818152602001828054610101906106cd565b801561014e5780601f106101235761010080835404028352916020019161014e565b820191906000526020600020905b81548152906001019060200180831161013157829003601f168201915b505050505090806001018054610163906106cd565b80601f016020809104026020016040519081016040528092919081815260200182805461018f906106cd565b80156101dc5780601f106101b1576101008083540402835291602001916101dc565b820191906000526020600020905b8154815290600101906020018083116101bf57829003601f168201915b5050505050908060020180546101f1906106cd565b80601f016020809104026020016040519081016040528092919081815260200182805461021d906106cd565b801561026a5780601f1061023f5761010080835404028352916020019161026a565b820191906000526020600020905b81548152906001019060200180831161024d57829003601f168201915b5050505050905083565b6000808154809291906102869061072d565b9190505550604051806060016040528084815260200183815260200182815250600160008054815260200190815260200160002060008201518160000190816102cf9190610921565b5060208201518160010190816102e59190610921565b5060408201518160020190816102fb9190610921565b509050507f6053ff7ab2f6fa9a2bbd0896e922f5ef642bd4b2c3f5ec7c4c5644a0c6c1aa288383836040516103329392919061044c565b60405180910390a1505050565b60005481565b6000604051905090565b600080fd5b600080fd5b6000819050919050565b61036c81610359565b811461037757600080fd5b50565b60008135905061038981610363565b92915050565b6000602082840312156103a5576103a461034f565b5b60006103b38482850161037a565b91505092915050565b600081519050919050565b600082825260208201905092915050565b60005b838110156103f65780820151818401526020810190506103db565b60008484015250505050565b6000601f19601f8301169050919050565b600061041e826103bc565b61042881856103c7565b93506104388185602086016103d8565b61044181610402565b840191505092915050565b600060608201905081810360008301526104668186610413565b9050818103602083015261047a8185610413565b9050818103604083015261048e8184610413565b9050949350505050565b600080fd5b600080fd5b7f4e487b7100000000000000000000000000000000000000000000000000000000600052604160045260246000fd5b6104da82610402565b810181811067ffffffffffffffff821117156104f9576104f86104a2565b5b80604052505050565b600061050c610345565b905061051882826104d1565b919050565b600067ffffffffffffffff821115610538576105376104a2565b5b61054182610402565b9050602081019050919050565b82818337600083830152505050565b600061057061056b8461051d565b610502565b90508281526020810184848401111561058c5761058b61049d565b5b61059784828561054e565b509392505050565b600082601f8301126105b4576105b3610498565b5b81356105c484826020860161055d565b91505092915050565b6000806000606084860312156105e6576105e561034f565b5b600084013567ffffffffffffffff81111561060457610603610354565b5b6106108682870161059f565b935050602084013567ffffffffffffffff81111561063157610630610354565b5b61063d8682870161059f565b925050604084013567ffffffffffffffff81111561065e5761065d610354565b5b61066a8682870161059f565b9150509250925092565b61067d81610359565b82525050565b60006020820190506106986000830184610674565b92915050565b7f4e487b7100000000000000000000000000000000000000000000000000000000600052602260045260246000fd5b600060028204905060018216806106e557607f821691505b6020821081036106f8576106f761069e565b5b50919050565b7f4e487b7100000000000000000000000000000000000000000000000000000000600052601160045260246000fd5b600061073882610359565b91507fffffffffffffffffffffffffffffffffffffffffffffffffffffffffffffffff820361076a576107696106fe565b5b600182019050919050565b60008190508160005260206000209050919050565b60006020601f8301049050919050565b600082821b905092915050565b6000600883026107d77fffffffffffffffffffffffffffffffffffffffffffffffffffffffffffffffff8261079a565b6107e1868361079a565b95508019841693508086168417925050509392505050565b6000819050919050565b600061081e61081961081484610359565b6107f9565b610359565b9050919050565b6000819050919050565b61083883610803565b61084c61084482610825565b8484546107a7565b825550505050565b600090565b610861610854565b61086c81848461082f565b505050565b5b8181101561089057610885600082610859565b600181019050610872565b5050565b601f8211156108d5576108a681610775565b6108af8461078a565b810160208510156108be578190505b6108d26108ca8561078a565b830182610871565b50505b505050565b600082821c905092915050565b60006108f8600019846008026108da565b1980831691505092915050565b600061091183836108e7565b9150826002028217905092915050565b61092a826103bc565b67ffffffffffffffff811115610943576109426104a2565b5b61094d82546106cd565b610958828285610894565b600060209050601f83116001811461098b5760008415610979578287015190505b6109838582610905565b8655506109eb565b601f19841661099986610775565b60005b828110156109c15784890151825560018201915060208501945060208101905061099c565b868310156109de57848901516109da601f8916826108e7565b8355505b6001600288020188555050505b50505050505056fea2646970667358221220c3c27d870e942beadf0ad48d63b51caad17fab063594db054fce4d061aecb62564736f6c63430008120033",
  "immutableReferences": {},
  "source": "// SPDX-License-Identifier: MIT\r\npragma solidity >=0.4.22 <0.9.0;\r\n\r\ncontract Emission {\r\n    uint256 public dataCount = 0;\r\n    struct Data {\r\n        string wallet_id;\r\n        string carbon;\r\n        string date;\r\n    }\r\n\r\n    event EmissionData(string wallet_id, string carbon, string date);\r\n\r\n    mapping(uint256 => Data) public emmis;\r\n\r\n    function createEmissionData(string memory _walletID, string memory _carbon, string memory _date) public {\r\n        dataCount++;\r\n        emmis[dataCount] = Data(_walletID, _carbon, _date);\r\n        emit EmissionData(_walletID, _carbon, _date);\r\n    }\r\n\r\n}\r\n",
  "sourcePath": "G:\\Github-Repo\\Binary-Beast\\Green-Chain\\contracts\\Emission.sol",
  "compiler": {
    "name": "solc",
    "version": "0.8.18+commit.87f61d96.Emscripten.clang"
  },
  "schemaVersion": "3.4.12",
  "updatedAt": "2023-02-19T07:28:43.386Z",
  "networkType": "ethereum",
  "devdoc": {
    "kind": "dev",
    "methods": {},
    "version": 1
  },
  "userdoc": {
    "kind": "user",
    "methods": {},
    "version": 1
  }
}